:020000040800F2
:10000000D0BB0020DD010008A5260008A7260008B7
:10001000AB260008AF260008B32600080000000049
:100020000000000000000000000000004501000882
:10003000B72600080000000089010008B926000862
:10004000F7010008F7010008F7010008F7010008B0
:10005000F7010008F7010008F7010008F7010008A0
:10006000F7010008F7010008F7010008F701000890
:10007000F7010008F7010008F7010008F701000880
:10008000F7010008F7010008F7010008F701000870
:10009000F7010008F7010008F7010008F701000860
:1000A000F7010008F7010008F7010008F701000850
:1000B000F7010008F70100081F290008F7010008F0
:1000C000F7010008F7010008F7010008F701000830
:1000D000F7010008F7010008F7010008F701000820
:1000E000F7010008F7010008F7010008F701000810
:1000F000F7010008F7010008F7010008F701000800
:10010000F7010008F7010008F7010008F7010008EF
:10011000F7010008F7010008F7010008F7010008DF
:10012000F7010008F7010008F7010008F7010008CF
:10013000DFF80CD015F06CF900480047BD2400082A
:10014000D0BB0020224B19680868B0E8F00F80F39C
:100150000988BFF36F8F4FF0000080F311884EF0D5
:100160000D0E70470000000006480068006880F32C
:10017000088862B661B6BFF34F8FBFF36F8F00DFA1
:1001800000BF00BF08ED00E0EFF30980BFF36F8F01
:100190000F4B1A6820E9F00F106008B54FF05000BF
:1001A00080F31188BFF34F8FBFF36F8F03F010F907
:1001B0004FF0000080F31188BDE808401968086816
:1001C000B0E8F00F80F30988BFF36F8F704700BF6E
:1001D00034000020EFF30580704700000648804798
:1001E00006480047FEE7FEE7FEE7FEE7FEE7FEE71C
:1001F000FEE7FEE7FEE7FEE7DF0200083101000848
:100200000CB50020019000906C48006840F48030EC
:100210006A49086000BF6948006800F40030009037
:100220000198401C0190009818B90198B0F5A06F92
:10023000F1D16248006800F4003010B10120009054
:1002400001E0002000900098012843D15C4800683C
:1002500040F010005A4908600846006820F003008A
:1002600008600846006840F0020008605348406893
:10027000524948600846406848600846406840F473
:10028000806048600846406820F47C10486008465A
:10029000406840F4E81048600846006840F080700C
:1002A000086000BF4548006800F000700028F9D0E1
:1002B0004248406820F003004049486008464068D2
:1002C00040F00200486000BF3C48406800F00C006D
:1002D0000828F9D10CBD10B5FFF792FF10BD10B57D
:1002E0003648006840F0010034490860084640681C
:1002F000344908403149486008460068324908409E
:100300002E4908600846006820F4802008600846EE
:10031000406820F4FE0048604FF41F008860FFF73B
:10032000DAFF4FF000602949086010BD10B50021C8
:1003300000200022214B5B6803F00C0121B104294D
:1003400006D0082928D107E0214B224C236027E062
:100350001F4B204C236023E0184B5B6803F47010A4
:10036000164B5B6803F48032022303EB904022B902
:10037000194B4343174C23600DE0104B5B6803F4AB
:10038000003323B1144B4343124C236003E0104B62
:100390004343104C236003E00D4B0E4C236000BF21
:1003A00000BF064B5B68C3F303130C4CE15C094BC5
:1003B0001B68CB40074C236010BD000000100240BA
:1003C000002002400000FFF8FFFFF6FE08ED00E00D
:1003D00000127A000000002000093D000400002007
:1003E00031490143314A1160704770B50021002343
:1003F0000F22C47804B32D4C246804F4E064C4F5DF
:10040000E064210AC1F10403CA40447804FA03F10C
:100410008478144021430901254C0678A1550478BD
:1004200004F01F050124AC4005786D11AD0005F105
:10043000E025C5F8004109E0047804F01F05012417
:10044000AC401C4D0678761145F8264070BD1A4A1E
:100450000A400243154B1B1F1A60704739B1134AFB
:10046000121D12680243114B1B1D1A6006E00F4A51
:10047000121D126882430D4B1B1D1A607047042821
:1004800008D14FF0E021096941F004014FF0E0226A
:10049000116107E04FF0E021096921F004014FF0FC
:1004A000E0221161704700000000FA050CED00E049
:1004B00000E400E080E100E080FFFF1F30B943F27C
:1004C000DB028100A1F1C0410A6005E043F2D202E3
:1004D0008100A1F1C0410A606FF07042411C8900A7
:1004E000A1F1C0410A608100A1F1C041C1F804211D
:1004F000704710280AD118214FF020421166402180
:1005000051664FF0FC319166D16610E01821F74A30
:10051000116040214FF02042C2F884104FF0FC31AE
:10052000F24A083211604FF02042C2F88C10704736
:100530001820EE492031086000200906C1F8A40007
:100540004FF0FC30E94928310860091D0860091D99
:1005500008607047D0E901121143C2681143026973
:1005600011434269114382691143C2691143026A0E
:100570001143426A1143826A1143C26A1143026BFA
:10058000114302689200A2F1C042116081680829FB
:100590000BD101688900A1F1C041096841F0400216
:1005A00001688900A1F1C0410A60416B0968426B92
:1005B000526841EA0211426B926841EA0221426BA1
:1005C000928941EA0241426B128A41EA0251426B2E
:1005D000127D41EA0261426B926911430268521C2A
:1005E0009200A2F1C0421160C16AB1F5804F1BD1E7
:1005F000816B0968826B526841EA0211826B9268D2
:1006000041EA0221826B128A41EA0251826B127D19
:1006100041EA0261826B9269114302689200A2F181
:10062000C042C2F8041107E06FF07042016889000F
:10063000A1F1C041C1F80421704730B5002100226A
:100640000023446844F0080485682C43C5682C43A3
:1006500005692C43456944EA4524856944EA4531E6
:10066000C4692468C5696D6844EA0524C5692D8993
:1006700044EA0544C5692D7B44EA0562046A24689E
:10068000056A6D6844EA0524056A2D8944EA054433
:10069000056A2D7B44EA05630468102C05D14FF0F0
:1006A00020442166A266E36608E0904C21604FF08A
:1006B0002044C4F888208D4C0C34236030BD016880
:1006C00041F01001426841EA4221826841EA423128
:1006D000864A20321160C1680968C268526841EADE
:1006E0000221C268128941EA0241C268127B41EAD2
:1006F00002617E4A28321160016909680269526804
:1007000041EA02210269128941EA02410269127B2F
:1007100041EA0261754A2C321160416909684269F7
:10072000526841EA02214269128941EA0241426962
:10073000127B41EA02614FF02042C2F8B0107047CC
:10074000002101600221416000218160C1600161DE
:1007500041618161C16101624FF480514162490090
:1007600081620021C16201630F21426B1160426B03
:100770005160FF21426B91600F21426BD160426B4F
:100780001161426B51610021426B91610F21826BBB
:100790001160826B5160FF21826B91600F21826B2F
:1007A000D160826B1161826B51610021826B91611A
:1007B000704710210160002141608160C1600161CA
:1007C00041618161FC21C2691160C2695160C269E5
:1007D0009160C269D160026A1160026A5160026A66
:1007E0009160026AD16070470021016041608160C0
:1007F000FC21C2681160C2685160C2689160C26821
:10080000D1600269116002695160026991600269F8
:10081000D1604269116042695160426991604269E8
:10082000D160704751B18200A2F1C042126842F01B
:1008300001038200A2F1C042136009E08200A2F12C
:10084000C04212682A4B1A408300A3F1C0431A60C9
:10085000704799B1102808D14FF02042126E42F033
:1008600004024FF020431A661DE0204A126842F04D
:1008700004024FF02043C3F8802014E0102809D16F
:100880004FF02042126E1A4BDB1E1A404FF02043ED
:100890001A6608E0154A1268154BDB1E1A404FF025
:1008A0002043C3F88020704748B1104920310968BF
:1008B00041F004014FF02042C2F8A01009E00B49BA
:1008C000203109680A4AD21E11404FF02042C2F876
:1008D000A0107047B9B110280CD14FF02042126E11
:1008E00042F040024FF020431A661FE0800000A053
:1008F000FEFF0F00724A126842F040024FF02043A0
:10090000C3F8802012E0102808D14FF02042126E68
:100910006C4B1A404FF020431A6607E0684A126891
:10092000684B1A404FF02043C3F8802070470146BF
:100930000020102903D14FF02042506F02E0604A9E
:1009400014321068704710B5F2B1102807D14FF07B
:1009500020435B6E0B434FF02044636632E0B0F5FA
:10096000807F08D1564B1B1D1B680B434FF0204462
:10097000C4F8843026E0524B24331B680B434FF0FD
:100980002044C4F8A4301DE0102807D14FF02043C4
:100990005B6E8B434FF02044636613E0B0F5807FBD
:1009A00008D1474B1B1D1B688B434FF02044C4F8F4
:1009B000843007E0424B24331B688B434FF02044C4
:1009C000C4F8A43010BD10B5024600200023102A40
:1009D00003D14FF02044636E09E0B2F5807F03D16C
:1009E000374C241D236802E0354C2434236803EA85
:1009F00001040CB1012000E0002010BD102807D137
:100A00004FF02042526E8A434FF020435A6613E063
:100A1000B0F5807F08D12A4A121D12688A434FF030
:100A20002043C3F8842007E0254A243212688A4311
:100A30004FF02043C3F8A420704770B50246002051
:100A4000002300240025102A03D14FF02046736EA6
:100A500009E0B2F5807F03D1194E361D336802E0FC
:100A6000174E2436336803EA010403EAD10514B1B2
:100A70000DB1012000E0002070BD102808D14FF01A
:100A80002042526E22EAD1024FF020435A6615E00E
:100A9000B0F5807F09D10A4A121D126822EAD102FC
:100AA0004FF02043C3F8842008E0054A243212683E
:100AB00022EAD1024FF02043C3F8A420704700007F
:100AC000800000A0BFFF0F0010B50446CC48844250
:100AD00008D10121042000F02DFB0021042000F0AA
:100AE00029FB46E0C748844208D10121082000F0D4
:100AF00021FB0021082000F01DFB3AE0C24884429F
:100B000008D10121102000F015FB0021102000F079
:100B100011FB2EE0BD48844208D10121202000F0C5
:100B200009FB0021202000F005FB22E0B8488442A8
:100B300008D10121402000F0FDFA0021402000F002
:100B4000F9FA16E0B348844208D10121802000F070
:100B5000F1FA0021802000F0EDFA0AE0AE4884426C
:100B600007D10121801500F0E5FA0021A01500F061
:100B7000E1FA10BD10B50121084600F0DBFA0021B2
:100B8000012000F0D7FA10BD2DE9F0410246002502
:100B90000026002000230024002791F803C00CF059
:100BA0000F0591F803C00CF0100CBCF1000F03D03E
:100BB00091F802C04CEA050591F800C0BCF1000FA5
:100BC00031D0146800202BE04FF0010C0CFA00F338
:100BD000B1F800C00CEA03069E4220D183004FF01A
:100BE0000F0C0CFA03F7BC4305FA03FC4CEA0404AF
:100BF00091F803C0BCF1280F06D14FF0010C0CFA9C
:100C000000FCC2F814C00AE091F803C0BCF1480F20
:100C100005D14FF0010C0CFA00FCC2F810C0401CCA
:100C20000828D1D31460B1F800C0BCF1FF0F34DD47
:100C3000546800202EE000F1080C4FF0010808FA7B
:100C40000CF3B1F800C00CEA03069E4221D18300E8
:100C50004FF00F0C0CFA03F7BC4305FA03FC4CEA07
:100C6000040491F803C0BCF1280F05D100F1080C71
:100C700008FA0CF8C2F8148091F803C0BCF1480FD0
:100C800007D100F1080C4FF0010808FA0CF8C2F87F
:100C90001080401C0828CED35460BDE8F0814FF688
:100CA000FF710180022181700421C17070470246EA
:100CB000002093680B400BB1012000E0002070473A
:100CC0000146886880B2704702460020D3680B4016
:100CD0000BB1012000E0002070470146C86880B2D7
:100CE000704701617047416170470AB1016100E0DE
:100CF00041617047C16070474FF480320A4382619E
:100D00008161826182698269704702460020434B9B
:100D100018684FF68073184040EA021008433F4BB2
:100D2000186070473E49C8617047F0B50A46002315
:100D300000240021002500F00046B6F1004F02D14A
:100D4000364EF16901E0354E7168C0F3034583B258
:100D500000F44016B6F5401F08D121F070612F4E07
:100D6000766826F070662D4F7E6012E000F48016E3
:100D7000B6F5801F06D1032606FA05F4A14341F01B
:100D8000706106E0460D360103FA06F6B14341F004
:100D9000706122B1460D360103FA06F6314300F0C8
:100DA0000046B6F1004F02D11C4EF16101E01B4E2E
:100DB0007160F0BD30B500228B071C0F0F2303FAC2
:100DC00004F2164B08338C1053F824309343134C21
:100DD00008348D1044F8253023468C1053F8243005
:100DE0008C07240F00FA04F423430C4C08348D10B4
:100DF00044F8253030BD0A49DC31086070470000F6
:100E000000080140000C01400010014000140140A6
:100E100000180140001C014000200140000001407A
:100E200000002042DF48006840F00100DD49086012
:100E300008464068DC490840DA49486008460068CE
:100E4000DA490840D74908600846006820F4802045
:100E500008600846406820F4FE0048604FF41F0018
:100E600088607047CF49096821F48031CD4A11600C
:100E70001146096821F480211160B0F5803F03D04C
:100E8000B0F5802F0ED106E0C649096841F48031E3
:100E9000C44A116007E0C349096841F4A021C14A6E
:100EA000116000E000BF00BF704710B5014600228E
:100EB000002300204A11012A02D1BA4C236806E01F
:100EC000022A02D1B74C236A01E0B64C636A01F0F2
:100ED0001F02012494401C400CB1012000E00020BE
:100EE00010BD38B5002000900024002500BF31203F
:100EF000FFF7DBFF05460098401C00900098B0F516
:100F0000A06F01D0002DF2D03120FFF7CEFF08B145
:100F1000012400E00024204638BD01460020A14AFB
:100F2000106820F0F80040EAC10010607047A04946
:100F300008607047024600209A4B586820F47C10E5
:100F400042EA01031843974B586070479849086676
:100F5000704701460020934A506820F00300084380
:100F6000506070478F48406800F00C0070470146A1
:100F700000208C4A506820F0F00008435060704711
:100F800001460020874A506820F4E0600843506022
:100F9000704701460020834A506820F4605040EAC0
:100FA000C1005060704729B17E4A527A02437D4B9E
:100FB0005A7204E07B4A527A82437A4B5A727047E3
:100FC0007B49D8310860704701460020754A506857
:100FD00020F440400843506070470021714A20329D
:100FE0001170704A82F82010012802D004280AD11A
:100FF00004E001216B4A2032117005E00521694AA5
:101000002032117000E000BF00BF704769490860DE
:1010100070476449096A0143624A11627047654931
:1010200044390860704730B50021002200240023B5
:101030005C4D6D6805F00C0121B1042905D008292B
:1010400023D105E05C4D056022E05B4D05601FE0AB
:10105000544D6D6805F47012524D6D6805F480347E
:10106000022505EB92421CB9544D554305600BE037
:101070004C4D6D6805F400351DB1504D554305606C
:1010800002E04D4D5543056002E04B4D056000BF49
:1010900000BF444D6D6805F0F0010909484D6B5CD7
:1010A0000568DD4045603F4D6D6805F4E061090A63
:1010B000434D6B5C4568DD4085603A4D6D6805F4D5
:1010C0006051C90A3E4D6B5C4568DD40C560354DD9
:1010D0006D6805F44041890B3A4D6B5CC568B5FB02
:1010E000F3F5056130BD29B12E4A526902432D4BFB
:1010F0005A6104E02B4A526982432A4B5A61704775
:1011000029B1284A92690243264B9A6104E0254A94
:1011100092698243234B9A61704729B1214AD2696F
:101120000243204BDA6104E01E4AD26982431D4B20
:10113000DA61704729B11B4AD2680243194BDA6061
:1011400004E0184AD2688243164BDA60704729B12E
:10115000144A12690243134B1A6104E0114A1269DE
:101160008243104B1A61704712494039086070473A
:101170000F49C86470470B49C87170470948406AF5
:1011800040F0807007494862704701460020054AD8
:1011900092680A400AB1012000E00020704701492E
:1011A00088727047001002400000FFF8FFFFF6FE53
:1011B000000042428004424200127A0000093D00D1
:1011C000140000202400002010B50446FE4884428C
:1011D00008D10121C014FFF7ADFF0021E014FFF793
:1011E000A9FFC4E0B4F1804F08D101210846FFF700
:1011F000AEFF00210120FFF7AAFFB8E0F3488442C8
:1012000008D101210220FFF7A2FF00210220FFF7F1
:101210009EFFACE0EE48844208D101210420FFF794
:1012200096FF00210420FFF792FFA0E0E9488442E6
:1012300008D101210820FFF78AFF00210820FFF7CD
:1012400086FF94E0E448844208D101211020FFF792
:101250007EFF00211020FFF77AFF88E0DF488442FC
:1012600008D101212020FFF772FF00212020FFF785
:101270006EFF7CE0DA48844208D101214014FFF778
:1012800059FF00216014FFF755FF70E0D5488442F4
:1012900009D10121C804FFF74DFF00214FF40020C0
:1012A000FFF748FF63E0D048844209D101210805D7
:1012B000FFF740FF00214FF48010FFF73BFF56E09F
:1012C000CA48844209D101214805FFF733FF0021B4
:1012D0004FF40010FFF72EFF49E0C548844208D1C3
:1012E00001214020FFF733FF00214020FFF72FFFAF
:1012F0003DE0C048844208D101218020FFF727FF4C
:1013000000218020FFF723FF31E0BB48844208D151
:1013100001218015FFF71BFF0021A015FFF717FF24
:1013200025E0B648844209D101210804FFF702FFF5
:1013300000214FF48030FFF7FDFE18E0B0488442F2
:1013400009D101214804FFF7F5FE00214FF40030D8
:10135000FFF7F0FE0BE0AB48844208D1012188047E
:10136000FFF7E8FE00214FF48020FFF7E3FE10BDF9
:1013700000220288944B98420ED0994B98420BD091
:10138000B0F1804F08D0914B984205D0904B9842D5
:1013900002D0904B984204D14FF68F731A404B887D
:1013A0001A438D4B984207D08C4B984204D04FF68D
:1013B000FF431A40CB881A4302808B8883850B88B1
:1013C0000385814B98420BD0854B984208D08B4BBC
:1013D000984205D08A4B984202D08A4B984201D15C
:1013E0000B7A038601238382704770B500240022A4
:1013F0000023058C4FF6FE7635400584028C8388E9
:10140000048B4FF68F752C40B51E2C400D882C4355
:10141000751E2A400D892A434D882A436A4DA842E9
:101420000BD06F4DA84208D0744DA84205D0744D22
:10143000A84202D0734DA84213D14FF6F7752A4047
:101440004D892A434FF6FB752A408D882A434FF673
:10145000FF652B404FF6FF552B408D892B43CD89DF
:101460002B4383800483CD888586028470BD70B54C
:10147000002400220023058C4FF6EF7635400584CA
:10148000028C8388048B48F6FF752C404FF6FF458D
:101490002C400D884FF6FF7606EA05252C434FF6C3
:1014A000DF752A400D8906EA05152A434D8806EAAC
:1014B00005152A43444DA84202D0494DA8421DD1EA
:1014C0004FF67F752A404D894FF6FF7606EA0515DF
:1014D0002A434FF6BF752A408D8806EA05152A4330
:1014E0004FF6FF352B404FF2FF752B408D8906EAF2
:1014F00085052B43CD8906EA85052B43838004832C
:10150000CD880587028470BD70B5002400220023B9
:10151000058C4FF6FF6635400584028C8388848BEA
:101520004FF68F752C404FF6FC752C400D882C43E0
:101530004FF6FF552A400D894FF6FF7606EA05253E
:101540002A434D8806EA05252A431F4DA84202D0AA
:10155000234DA8421DD14FF2FF752A404D894FF609
:10156000FF7606EA05252A434FF6FF352A408D8887
:1015700006EA05252A434EF6FF752B404DF6FF750A
:101580002B408D8906EA05152B43CD8906EA051502
:101590002B4383808483CD888587028470BD70B59A
:1015A000002200230024058C4EF6FF76354005848A
:1015B000038C8488828B48F6FF752A404FF6FF45DE
:1015C0002A400D8820E00000002C0140000400406B
:1015D00000080040000C00400010004000140040D3
:1015E00000340140004C01400050014000540140D3
:1015F00000180040001C0040002000400040014056
:1016000000440140004801404FF6FF7606EA0525F8
:101610002A434DF6FF752B400D8906EA05352B430D
:101620004D8806EA05352B43FA4DA84202D0FA4D03
:10163000A84208D14BF6FF752C408D894FF6FF76F6
:1016400006EA85152C4384808283CD88A0F840501B
:10165000038470BD828B4FF2FF331A408283828BEA
:101660004FF6FF7303EA01231A4382837047F0B5F4
:101670000C461546002200210026078C4EF6FF7C02
:1016800007EA0C070784828B018C4FF6FF7707EA85
:10169000043640F6FF473A404FF6FF7707EA052742
:1016A0003A434FF6FF7707EA03373A43D94FB84238
:1016B0000ED0D94FB8420BD0B0F1804F08D0D74FE1
:1016C000B84205D0D64FB84202D0D64FB84206D164
:1016D0004DF6FF77394046F48057394305E047F629
:1016E000FF57394044F48057394382830184F0BD69
:1016F000828B4FF6F3731A408283828B0A43828374
:101700007047F0B50C461546002200210026078CD4
:101710004FF6FF6C07EA0C070784828B018C4FF6AB
:10172000FF7707EA04264FF60C773A404FF6FF772B
:1017300007EA03172F433A43B64FB8420ED0B64FCD
:10174000B8420BD0B0F1804F08D0B44FB84205D0AA
:10175000B34FB84202D0B34FB84206D14FF6FF574D
:10176000394046F48077394305E04FF2FF5739405E
:1017700044F48077394382830184F0BD028B4FF2B9
:10178000FF331A400283028B4FF6FF7303EA0123F3
:101790001A4302837047F0B50C461546002200211B
:1017A0000026078C4FF6EF7C07EA0C070784028BB4
:1017B000018C4FF6FF7707EA041640F6FF473A40E0
:1017C0004FF6FF7707EA03373A434FF6FF7707EA0A
:1017D00005273A438F4FB8420ED08F4FB8420BD0F7
:1017E000B0F1804F08D08D4FB84205D08C4FB84231
:1017F00002D08C4FB84206D14FF6DF77394046F021
:101800001007394305E04FF65F77394044F0100781
:10181000394302830184F0BD028B4FF6F3731A4003
:101820000283028B0A4302837047F0B50C461546CB
:1018300000220021068C4FF6FE773E400684028B84
:10184000018C4FF60C7632407E1C06EA03162E43BE
:101850003243704EB0420ED06F4EB0420BD0B0F15A
:10186000804F08D06D4EB04205D06D4EB04202D0D0
:101870006C4EB04206D14FF6FD76314044F0010681
:10188000314305E04FF6F576314044F0010631432F
:1018900002830184F0BD70B505460C465D48854263
:1018A0000ED05D4885420BD0B5F1804F08D05B4823
:1018B000854205D05A48854202D05A48854200D117
:1018C00000E000BF208850B92389A288618828469B
:1018D000FFF7ABFFE1882846FFF79EFF25E0208851
:1018E00004280AD12389A28861882846FFF753FF7C
:1018F000E1882846FFF742FF17E0208808280AD130
:101900002389A28861882846FFF7FBFEE1882846E4
:10191000FFF7EEFE09E02389A28861882846FFF7D9
:10192000A6FEE1882846FFF795FE70BD2DE9F0413F
:1019300005460C4600260127608808B9022600E00B
:101940000026A088012801D1022700E00127208875
:10195000A0B92389A28861882846FFF766FFE1883D
:101960002846FFF759FF23893A4631462846FFF7B4
:1019700012FFE1882846FFF701FF13E02389A288C0
:1019800061882846FFF707FFE1882846FFF7F6FE43
:1019900023893A4631462846FFF747FFE188284623
:1019A000FFF73AFFBDE8F0810A884B881A438B881D
:1019B0001A43CB881A430B891A434B891A438B89E4
:1019C0001A43A0F8442070474FF6FF718180002130
:1019D0000180C180418001727047002101804180F7
:1019E0008180C180018141818181C1817047002155
:1019F00001804180012181800021C18001817047E7
:101A00000021018041808180C180018141818181EB
:101A100070470000002C01400034014000040040E9
:101A200000080040000C004021B1028842F0010291
:101A3000028004E002884FF6FE731A40028070476D
:101A400031B1B0F8442042F40042A0F8442005E04F
:101A5000B0F84420C2F30E02A0F8442070471AB137
:101A600083890B43838102E083898B4383817047A1
:101A70008182704741EA0203A0F8483070471AB1EA
:101A800083890B43838102E083898B438381704781
:101A900001894FF6F8721140018170470A46002112
:101AA00001894FF68F73194011430181704730B59A
:101AB00004460D4629462046FFF7F0FF208940F0F6
:101AC0000700208130BD2DE9F04104460D46164641
:101AD0001F46602D06D13B46012231462046FFF7C6
:101AE0005AFE05E03B46012231462046FFF79DFEA7
:101AF00029462046FFF7D2FF208940F007002081C9
:101B0000BDE8F08130B50C4600210189C9B24FF61D
:101B1000FF7505EA0325154325432943018130BD9F
:101B20002DE9F04105460E461746984600244346E7
:101B30003A4631462846FFF7E5FF2C894FF6F87004
:101B4000044044F007044FF68F70044044F07004E2
:101B50002C81BDE8F081F0B504460D4616461F46BF
:101B60003B46324629462046FFF7CCFF208940F409
:101B700080402081F0BD0185828270470A460021A5
:101B800001884FF68F731940114301807047F0B5FB
:101B90000C4615461E460021002200230189028BB7
:101BA000038C4FF6F877394021434FF6FC473A4013
:101BB00040F201173A434FF6DD773B404FF6FF778F
:101BC00007EA06172F433B43018102830384F0BDDC
:101BD0000A460021018B4FF68F7319401143018390
:101BE00070470A460021018B48F6FF7319404FF6F3
:101BF000FF7303EA02231943018370470A46002159
:101C0000818B4FF68F7319401143818370470A46C9
:101C10000021818B48F6FF7319404FF6FF7303EAEA
:101C2000022319438183704721B1028842F0800268
:101C3000028004E002884FF67F731A4002807047EA
:101C400021B1828842F00402828004E082884FF64B
:101C5000FB731A408280704721B1828842F00802EB
:101C6000828004E082884FF6F7731A4082807047C2
:101C700021B1828842F00102828004E082884FF61E
:101C8000FE731A40828070470A460021018B4FF68E
:101C9000F77319401143018370470A460021018BF5
:101CA0004FF2FF7319404FF6FF7303EA0223194303
:101CB000018370470A460021818B4FF6F773194064
:101CC0001143818370470A460021818B4FF2FF73D5
:101CD00019404FF6FF7303EA0223194381837047CB
:101CE0000A460021018B4FF6FB7319401143018313
:101CF00070470A460021018B4FF6FF3319404FF61B
:101D0000FF7303EA02231943018370470A46002147
:101D1000818B4FF6FB7319401143818370470A464C
:101D20000021818B4FF6FF3319404FF6FF7303EA12
:101D300002231943818370470A460021018B4FF625
:101D40007F7319401143018370470A460021018BBC
:101D5000C1F30E014FF6FF7303EA02231943018317
:101D600070470A460021818B4FF67F73194011435B
:101D7000818370470A460021818BC1F30E014FF623
:101D8000FF7303EA02231943818370470A46002147
:101D9000018C4FF6FD7319401143018470470A46C8
:101DA0000021018C4FF6F7731940114301847047ED
:101DB0000A460021018C4FF6DF7319404FF6FF737E
:101DC00003EA02131943018470470A460021018C7B
:101DD0004FF67F7319404FF6FF7303EA021319435E
:101DE000018470470A460021018C4FF6FF531940C9
:101DF0004FF6FF7303EA02231943018470470A4632
:101E00000021018C4FF2FF7319404FF6FF7303EA74
:101E100002231943018470470A460021018C4DF6C4
:101E2000FF7319404FF6FF7303EA0233194301842D
:101E3000704730B5002301248C40A3B2048C9C432E
:101E40000484048C02FA01F5ADB22C43048430BD45
:101E500030B5002304248C40A3B2048C9C4304843A
:101E6000048C02FA01F5ADB22C43048430BD70B588
:101E70000346002000241846183001258D40ACB2DE
:101E80001D8CA5431D8409B1082909D100EB61000F
:101E9000056825F0700505600568154305600EE0CE
:101EA0000D1FC5F34E052844056825F4E04505607F
:101EB00005684FF6FF7606EA02263543056070BDD9
:101EC00021B1028842F00202028004E002884FF64B
:101ED000FD731A400280704721B1028842F004026B
:101EE000028004E002884FF6FB731A4002807047BC
:101EF00021B1828842F08002828004E082884FF61D
:101F00007F731A408280704702884FF6F7731A4039
:101F1000028002880A430280704782884FF68F73DE
:101F20001A40828082880A438280704702894FF675
:101F3000F8731A40028102890A43028170470289BC
:101F40004FF67F731A40028102890A43028170476B
:101F5000818470478185704781867047018770470B
:101F600081877047A0F84010704702884FF6FF4302
:101F70001A40028002880A43028070470146888E18
:101F800070470146088F70470146888F70470146A9
:101F9000B1F8400070470146888C70470146088DB3
:101FA000704702460020138A0B400BB1012000E06D
:101FB00000207047CA430282704730B502460020B5
:101FC00000230024158A05EA0103958905EA010426
:101FD00013B10CB1012000E0002030BDCA430282E1
:101FE0007047000010B50446FB48844209D1012126
:101FF0008803FFF79FF800214FF48040FFF79AF81D
:1020000032E0F648844209D101214804FFF79FF8E5
:1020100000214FF40030FFF79AF825E0F0488442A1
:1020200009D101218804FFF792F800214FF48020A4
:10203000FFF78DF818E0EB48844209D10121C8046C
:10204000FFF785F800214FF40020FFF780F80BE040
:10205000E548844208D101210805FFF778F80021FE
:102060004FF48010FFF773F810BD2DE9F04786B0EC
:1020700005460E460024A24600BFA1460027B089AF
:1020800000B100BF2F462C8A4CF6FF700440F08848
:1020900004432C82AC894EF6F3100440B088318999
:1020A0000843718908430443AC81AC8A4FF6FF4072
:1020B0000440B0890443AC8201A8FEF7B4FFC648CF
:1020C000874202D1DDF810A001E0DDF80CA0A8895C
:1020D00000F4004040B10AEBCA0000EB0A1031687E
:1020E0004900B0FBF1F807E00AEBCA0000EB0A1068
:1020F00031688900B0FBF1F86420B8FBF0F004010E
:102100002009642101FB1089A88900F4004040B136
:10211000322000EBC900B0FBF1F000F007000443EF
:1021200008E0322000EB09106421B0FBF1F000F070
:102130000F0004432C8106B0BDE8F0874FF4165120
:10214000016000218180C18001810C214181002139
:102150008181704710B502460020108A4FF2FF03BC
:1021600018400B884C8823438C882343CC88234316
:102170001843108210BD0021018041808180C18000
:10218000704721B1828942F40052828104E0828941
:102190004DF6FF731A4082817047F0B50346002464
:1021A00000260025002040F66A17B94200D100BF82
:1021B0001846C1F3421401F01F06012707FA06F57D
:1021C000012C01D10C3004E0022C01D1103000E0D0
:1021D00014301AB107682F43076002E00768AF4365
:1021E0000760F0BD1AB1838A0B43838202E0838AC1
:1021F0008B4383827047028A4FF6F0731A40028243
:10220000028A0A430282704782894FF2FF731A40A2
:10221000828182890A438281704721B1828942F09A
:102220000202828104E082894FF6FD731A408281A6
:102230007047028A4FF6DF731A400282028A0A430D
:102240000282704721B1028A42F48042028204E095
:10225000028A4BF6FF731A4002827047C1F30802EC
:102260008280704701468888C0F3080070478189E2
:1022700041F0010181817047028BD2B20283028B4F
:1022800042EA012202837047028B02F47F420283FA
:10229000028B0A430283704721B1828A42F02002F6
:1022A000828204E0828A4FF6DF731A40828270478E
:1022B00021B1828A42F01002828204E0828A4FF6C3
:1022C000EF731A408282704721B1828A42F008027D
:1022D000828204E0828A4FF6F7731A408282704746
:1022E00021B1828942F40042828103E08289C2F3F3
:1022F0000E028281704721B1828A42F4006282829A
:1023000004E0828A4FF2FF731A4082827047828A09
:102310004FF6FB731A408282828A0A438282704798
:1023200021B1828A42F00202828204E0828A4FF660
:10233000FD731A408282704702460020B1F5007F8B
:1023400000D100BF13880B400BB1012000E000203A
:10235000704701F40072B2F5007F00D100BFCA439C
:102360000280704770B5024600240023002500203B
:1023700040F66A16B14200D100BFC1F3421501F028
:102380001F03012606FA03F3012D02D1968933407B
:1023900006E0022D02D1168A334001E0968A3340CE
:1023A0000C12012606FA04F41688344013B10CB15D
:1023B000012000E0002070BD10B50022002340F68F
:1023C0006A14A14200D100BF0A1201249440A3B2B2
:1023D000DC43048010BD0000003801400044004090
:1023E00000480040004C00400050004000BF05E0A5
:1023F0006D484168002088470FF089F8F8E714E03D
:1024000020206A4908604FF4FA7000F0BFFE68A00F
:1024100013F04AF820206549091F08604FF4FA704C
:1024200000F0B4FE69A013F03FF8E9E71CB5012401
:1024300001F009FF6C48022100230A02CDE90010D7
:102440006AA16D4800F021FC0446012C02D16BA06A
:1024500013F02AF86F48022100230A02CDE9001088
:102460006DA1704800F011FC0446012C02D16EA051
:1024700013F01AF87348006800F055FC01F006FFED
:102480001CBD10B54FF44070FDF7AAFF00F01CF919
:1024900000F055F903F073FD02F0F0F800F060FA77
:1024A000472140F2E73000F009FA05F0A3FE12F0F0
:1024B00009FB12F057FB12F080FB10BD1CB5012484
:1024C000FFF7DFFF60A012F0EFFF5E48012100235D
:1024D0004A02CDE900106BA16E4800F0D6FB04461D
:1024E000012C02D101F0F6F802E04FF0FF301CBDE4
:1024F00000BFFEE71CB54FF478406749088067A02D
:102500001021CDE9001066494B880A8809882039D6
:1025100088B2002102F0D4FC1F200090604843885C
:102520004088103881B28B22782002F0B0F94FF445
:10253000784000905A4843884088103881B29F22E2
:102540008C2002F0A4F94FF61F00009054484388F5
:102550004088103881B2B322A02002F098F94FF4DD
:10256000FC6000904E4843884088103881B2C722F2
:10257000B42002F08CF947F6FF7000904848438879
:102580004088103881B2DB22C82002F080F94FF673
:10259000E0700090424843884088103881B2EF22B2
:1025A000DC2002F074F91CBDA0000020140C0140D6
:1025B0004C45445F5461736B2052756E6E696E6753
:1025C0002C4C4544315F4F4E0D0A00004C45445F92
:1025D0005461736B2052756E6E696E672C4C454466
:1025E000315F4F46460D0A002C0000204C45445FE9
:1025F0005461736B00000000FF230008B4B4BDA851
:102600004C45445F5461736BC8CECEF1B3C9B9A6D3
:10261000210D0A0030000020544F5543485F54619B
:10262000736B0000ED230008B4B4BDA8544F5543AC
:10263000485F5461736BC8CECEF1B3C9B9A6210D02
:102640000A00000028000020D5E2CAC7D2BBB8F6B5
:102650005BD2B0BBF05D2D53544D3332C8ABCFB518
:10266000C1D0BFAAB7A2B0E52D4672656552544FDE
:10267000532DB6AFCCACB4B4BDA8C8CECEF1210DAD
:102680000A0000004170705461736B43726561749D
:10269000650000002D2400089400002052535400CF
:1026A00098000020704700BFFEE700BFFEE700BFB4
:1026B000FEE700BFFEE7704710B501F0AFF9012853
:1026C00001D001F0FBFD10BD08B501214820FEF747
:1026D00017FD2020ADF8000010208DF80300032026
:1026E0008DF8020069460A48FEF74EFA4FF4806002
:1026F000ADF8000069460748FEF746FA2021044875
:10270000FEF7EFFA4FF480610248FEF7EAFA08BDDF
:10271000000C01400018014008B54FF4A060FDF71F
:102720005FFE25208DF8000001208DF801008DF856
:1027300002008DF803006846FDF757FE08BD00B59E
:1027400085B001210420FEF7DBFC01218803FEF7A0
:10275000D7FC4FF40070ADF8100018208DF813006E
:1027600003208DF8120004A95248FEF70DFA4FF429
:102770008060ADF8100004208DF8130004A94D48C6
:10278000FEF702FA4FF4E13000900020ADF80400AB
:10279000ADF80600ADF80800ADF80C000C20ADF85F
:1027A0000A0069464448FFF760FCFFF7B5FF0122C5
:1027B00040F225514048FFF7F0FC01213E48FFF769
:1027C000E0FC05B000BD70B504460D462946204624
:1027D000FFF744FD00BF80212046FFF7ADFD002834
:1027E000F9D070BD2DE9F04107460D46164600248C
:1027F00005E0295D3846FFF7E6FF601CC4B2B4422D
:10280000F7DB00BF40213846FFF796FD0028F9D0DE
:10281000BDE8F08170B506460C46002500BF615D3D
:102820003046FFF7D0FF6D1C605D0028F7D100BF78
:1028300040213046FFF780FD0028F9D070BD2DE91A
:10284000F04105460C46260AE7B231462846FFF716
:1028500005FD00BF80212846FFF76EFD0028F9D056
:1028600039462846FFF7FAFC00BF80212846FFF7CB
:1028700063FD0028F9D0BDE8F08170B504460D462F
:10288000E1B20D48FFF7EAFC00BF80210A48FFF7DC
:1028900053FD0028F9D0204670BD10B5044600BF96
:1028A00020210548FFF748FD0028F9D00248FFF72E
:1028B000D9FC10BD00080140003801407FB5054635
:1028C0000C4601210420FEF728FCADF80850ADF8B5
:1028D00004400020ADF80A00ADF8060001A91F4829
:1028E000FEF746FD012211461C48FFF7B8F801210A
:1028F0001A48FFF773FB1E208DF8000002208DF8A8
:10290000010003208DF8020001208DF803006846C5
:10291000FDF76BFD01211148FFF786F87FBD10B56B
:1029200000BF5021EFF3118081F31188BFF34F8F67
:10293000BFF36F8F00BF044601210848FFF73DFB3E
:1029400010B101200DF0E2FD01210448FFF746FB24
:1029500000BF84F3118800BF10BD000000080040D4
:1029600000B597B001214FF4F070FEF7C9FB0121CB
:102970000802FEF7B8FB03208DF85A004FF4806080
:10298000ADF8580018208DF85B0016A93848FEF7FE
:10299000FBF80320ADF8580016A93648FEF7F4F806
:1029A0003020ADF8580016A93348FEF7EDF84FF681
:1029B0000370ADF8580016A92F48FEF7E5F84FF65A
:1029C0008070ADF8580016A92A48FEF7DDF84FF2DE
:1029D0003F00ADF8580016A92848FEF7D5F83F206B
:1029E000ADF8580016A92248FEF7CEF80020009056
:1029F000019008200290002003900490059006901A
:102A00000420079000200890099010200A900020D0
:102A10000B900D900C900E900F904FF480501090F2
:102A20000020119012901390CDF850D0CDF854D0D2
:102A300007A8FDF78FFD01210420FDF7F3FE17B075
:102A400000BD10B506E010F8014B4FF0D0435C54C8
:102A5000491C521E002AF6D110BD06E04FF0D043AB
:102A60005B5C00F8013B491C521E002AF6D17047FE
:102A7000002001400018014000140140001C0140EA
:102A800000F1080141604FF0FF31816000F1080161
:102A9000C160016100210160704700210161704740
:102AA00042684A6093688B609368596091600861DE
:102AB00003685B1C0360704710B502460B685C1C22
:102AC0000CB9106907E002F1080000E040684468B2
:102AD00024689C42FAD944684C604C68A1608860C4
:102AE00041600A611468641C146010BD01460A69E3
:102AF000D1E901309860D1E90103586050688842FB
:102B000001D188685060002008611068401E106084
:102B10001068704710B5002407E004EB8401FE4AFA
:102B200002EB8100FFF7ACFF641C202CF5D3FB48BF
:102B3000FFF7A6FFFA48FFF7A3FFFA48FFF7A0FF49
:102B4000F948FFF79DFFF948FFF79AFFF348F84966
:102B50000860F348F749086010BD10B5044601F05D
:102B600072FBF5480068401CF3490860F3480068B0
:102B700040B9F24804600846006801280DD1FFF70B
:102B8000C9FF0AE0EE48006838B9EC480068C06A3E
:102B9000E16A884201D8E9480460EA480068401CBC
:102BA000E849086094F82C1001208840E64909683B
:102BB0000843E5490860E16A01EB8101D64A02EB6E
:102BC0008100211DFFF76CFF01F060FBDC4800680D
:102BD00068B1DA480068C06AE16A884207D24FF0FB
:102BE0008050DA490860BFF34F8FBFF36F8F10BD7D
:102BF0002DE9FF5F81460E469246DDE90E7B109C73
:102C0000AAF10100216B01EB800828F0070808F009
:102C1000070008B9012000E0002028B940F22B325B
:102C2000CBA1D2A012F040FC002507E0715D04F1B9
:102C300034004155705D00B902E06D1C102DF5D3D4
:102C400000BF002143200155202F00D31F27E7623A
:102C5000201DFFF722FF04F11800FFF71EFF24617B
:102C6000C7F12000A06164620020606484F848001D
:102C700049464046039A01F073FA2060BBF1000F09
:102C800001D0CBF80040BDE8FF9F2DE9FF4F85B094
:102C9000804689461746DDE912ABB80001F059F9C4
:102CA000064656B14C2001F054F904460CB1266397
:102CB00004E0304601F0D0F900E000247CB10020AF
:102CC000CDE900ABCDE902403A4649464046089B73
:102CD000FFF78EFF2046FFF740FF012501E04FF090
:102CE000FF35284609B0BDE8F08F914909680968A9
:102CF00009B9012100E0002121B14FF0FF319F4AC5
:102D0000116006E08A490968C968C8689B4A416839
:102D10001160704710B50446206B01F09DF9204604
:102D200001F09AF910BD70B5054601F08CFA15B99D
:102D30008248006800E028460446201DFFF7D6FEC2
:102D400078B9E06A00EB8000734951F8200040B97F
:102D500094F82C10012088407B49096881437A4807
:102D60000160A06A18B104F11800FFF7BFFE7548B2
:102D70000068401C7349086070480068844209D1AB
:102D8000211D6948FFF78CFE7D480068401C7C4986
:102D9000086009E068480068401E674908602046EE
:102DA000FFF7B8FFFFF7A1FF01F070FA6448006871
:102DB000C0B162480068844214D17248006808B902
:102DC000012000E0002028B940F2654260A167A020
:102DD00012F06AFB4FF080505C490860BFF34F8FE0
:102DE000BFF36F8F70BD2DE9F0414FF000086548CB
:102DF0000068002872D164480068451C624805607C
:102E0000EDB94B480068006808B9012000E00020D7
:102E100028B940F6D9124EA154A012F045FB4448FF
:102E200007684448006842490860424807605748BC
:102E30000068401C55490860FFF757FF00BF4F4826
:102E4000006885423CD300BF39480068006808B973
:102E5000012000E0002020B14FF0FF30474908601A
:102E60002DE033480068C068C4686668B54202D285
:102E70004248066023E0201DFFF738FEA06A18B123
:102E800004F11800FFF732FE94F82C10012088405E
:102E90002D49096808432C490860E16A01EB81016A
:102EA0001D4A02EB8100211DFFF7FAFD2349E06A6C
:102EB0000968C96A8842C7D34FF00108C4E700BF58
:102EC0001E480068C06A00EB8000134951F82000DA
:102ED000012801D94FF0010805E0FFE72C48006800
:102EE000401C2B4908602B48006808B14FF00108CE
:102EF0004046BDE8F08170B50024002621480068F6
:102F000028B94FF4FD6212A118A012F0CDFA01F019
:102F10009AF91C4800683FE0E8010020680400209E
:102F20007C04002090040020A4040020B8040020A9
:102F3000380000203C000020440000203400002025
:102F400050000020600000204C00002004ED00E054
:102F50002E2E5C2E2E5C4672656552544F535C7368
:102F600072635C7461736B732E6300004572726FE1
:102F7000723A25732C25640D0A00000064000020BD
:102F8000400000206C000020480000205C00002071
:102F90005400002058000020401EFE4908600846EA
:102FA000006800284FD1FC48006800284BD024E07E
:102FB000FA48C068C46804F11800FFF797FD201DA7
:102FC000FFF794FD94F82C1001208840F44909681B
:102FD0000843F3490860E16A01EB8101F14A02EB21
:102FE0008100211DFFF75CFDEF49E06A0968C96AAD
:102FF000884202D30120ED490860E848006808B91A
:10300000012000E000200028D2D00CB1FFF76DFEB7
:10301000E748056865B100BFFFF7E5FE10B1012084
:10302000E24908606D1E002DF6D10020E0490860DD
:10303000DE48006838B101263007DE490860BFF37A
:103040004F8FBFF36F8F01F021F9304670BD2DE92E
:10305000F04105460E46D8480768D3480068001D71
:10306000FFF744FD50B9D048006890F82C100120BB
:103070008840CB4909688143C9480160681C38B958
:1030800036B1C9480168091DCC48FFF709FD1AE0AF
:103090007C19C54800684460BC4207D2C248016838
:1030A000091DC7480068FFF707FD0CE0BE4801682E
:1030B000091DC4480068FFF7FFFCC348006884424C
:1030C00001D2C1480460BDE8F081B2480068401CEC
:1030D000B049086070472DE9F04704460F464FF0AD
:1030E00000093CB940F27942AFF29C11AFF2841072
:1030F00012F0DAF90FB1012000E0002038B940F2F7
:103100007A42AFF2B411AFF29C1012F0CDF9A1489F
:10311000006808B9012000E0002038B940F27B4285
:10312000AFF2D411AFF2BC1012F0BEF9FFF7CDFF31
:10313000A14806682068C5192068B04207D92068F0
:10314000A8420BD9B54209D94FF0010906E0206821
:10315000A84201D8B54201D94FF001092560B9F163
:10316000000F03D0A81B0021FFF771FFFFF7C3FE7C
:103170008046B8F1000F07D14FF080508D490860AC
:10318000BFF34F8FBFF36F8FBDE8F08770B5044674
:103190000025BCB17F48006808B9012000E000208C
:1031A00038B940F2CF42AFF25821AFF2402012F0CE
:1031B0007BF9FFF78AFF00212046FFF748FFFFF762
:1031C0009AFE05463DB94FF080507A490860BFF33A
:1031D0004F8FBFF36F8F70BD2DE9F04107463E461C
:1031E0003EB940F2FB42AFF29821AFF2802012F0DC
:1031F0005BF96D480068864201D100241EE001F0B1
:1032000022F8756901F042F86E480068854203D0E3
:103210006B480068854201D102240FE0674885426F
:1032200005D1B06A08B9032408E0022406E0674823
:10323000854200D00DB9042400E001242046BDE8F9
:10324000F08170B5044600F0FEFF14B956480068DE
:1032500000E020460646F56A01F018F8284670BDE1
:103260002DE9F041054601F041F800BF5021EFF390
:10327000118081F31188BFF34F8FBFF36F8F00BFB1
:10328000044615B94848006800E028460746FE6A2B
:1032900000BF84F3118800BF3046BDE8F0812DE9FE
:1032A000F04780460D464FF00009202D01D2012045
:1032B00000E0002038B94FF4B062AFF26C31AFF2E9
:1032C000543012F0F1F8202D00D31F2500F0BBFF81
:1032D000B8F1000F02D13448006800E040460446CF
:1032E000E66AAE4251D0B5420BD92F4800688442FD
:1032F0000DD02D480068C06AA84208D84FF00109D7
:1033000005E029480068844201D14FF00109E76ACD
:10331000E562A06900F0004010B9C5F12000A0618D
:1033200007EB87011F4A02EB81016069884201D1E6
:10333000012000E00020E0B1201DFFF7D7FB30B9ED
:103340000120B8401649096881431548016094F886
:103350002C10012088401249096808431049086070
:10336000E16A01EB81010F4A02EB8100211DFFF7A9
:1033700097FBB9F1000F07D04FF080500D4908605E
:10338000BFF34F8FBFF36F8F00BF00F07FFFBDE82B
:10339000F08700006C000020440000209004002012
:1033A0004C000020E80100203400002058000020DC
:1033B0005400002004ED00E048000020B804002084
:1033C0003C0000203800002064000020A4040020FD
:1033D00010B5FE48006818B10120FD4908602FE0D3
:1033E0000020FB490860FB480068B0FA80F0C0F19B
:1033F0001F0404EB8400F84951F8200008B10120B3
:1034000000E0002038B940F6F622AFF2BC41AFF23E
:10341000A44012F049F804EB8401EF4A02EB81006A
:1034200041684968416000F1080142688A4202D15E
:103430004168496841604168C968E84A116000BF55
:1034400010BD70B5054600F0FEFE15B9E3480068F2
:1034500000E028460446201DFFF748FB78B9E06AE3
:1034600000EB8000DC4951F8200040B994F82C10A2
:1034700001208840D74909688143D6480160A06A85
:1034800018B104F11800FFF731FB211DD448FFF7F4
:1034900007FB00F0FBFED348006828B100F0D3FE24
:1034A000FFF723FC00F0F2FECC480068844226D1EE
:1034B000CC480068B8B1C548006808B9012000E0F0
:1034C000002038B940F25762AFF27C51AFF264503D
:1034D00011F0EAFF4FF08050C3490860BFF34F8FEF
:1034E000BFF36F8F0BE0BE480068C049096888428F
:1034F00003D10020B949086001E0FFF769FF70BD02
:1035000070B5054600262C463DB940F28162AFF207
:10351000C051AFF2A85011F0C7FFB14960698842AD
:1035200001D1012000E0002070B1B149A06A8842B9
:1035300001D1012000E0002030B9A06A08B90120C3
:1035400000E0002000B10126304670BD70B5054690
:103550002C463DB940F2AB62AFF20C61AFF2F450D1
:1035600011F0A2FF74B39D48006884422AD000F095
:103570006AFE2046FFF7C4FF10B3201DFFF7B6FA1E
:1035800094F82C1001208840924909680843914919
:103590000860E16A01EB81018F4A02EB8100211D85
:1035A000FFF77EFA8D49E06A0968C96A884207D345
:1035B0004FF080508C490860BFF34F8FBFF36F8F7F
:1035C00000F064FE70BD2DE9F04106460027344648
:1035D0003EB940F2E262AFF28861AFF2706011F082
:1035E00063FF00F083FE00BF5021EFF3118081F3F1
:1035F0001188BFF34F8FBFF36F8F00BF0546204682
:10360000FFF77EFF20B371480068E0B97349E06AB4
:103610000968C96A884200D30127201DFFF766FAAE
:1036200094F82C10012088406A49096808436949C8
:103630000860E16A01EB8101674A02EB8100211D0C
:10364000FFF72EFA04E004F118016948FFF728FAA1
:1036500000BF85F3118800BF3846BDE8F08170B522
:1036600023E0FFF732FD6348006808B9012000E05D
:1036700000200546FFF73FFCBDB900F0E4FD5D48C2
:10368000C068C468201DFFF731FA58480068401E22
:103690005649086058480068401E5749086000F0C5
:1036A000F5FD2046FFF736FB00BF534800680028B1
:1036B000D7D170BD00BFFFF7D2FF4748006801288F
:1036C000F9D94FF0805048490860BFF34F8FBFF3DE
:1036D0006F8FF0E71CB5494800210B468022CDE9E9
:1036E000001047A14848FFF7D0FA0446012C15D135
:1036F00000BF502080F31188BFF34F8FBFF36F8F4F
:1037000000BF4FF0FF304149086001203549086093
:1037100000203F49086000F03FFD0DE0601C08B14B
:10372000012000E0002038B940F28472AFF2E0716D
:10373000AFF2C87011F0B8FE1CBD10B500BF50202C
:1037400080F31188BFF34F8FBFF36F8F00BF00204E
:103750002449086000F066FD10BD2D4908687047D7
:1037600070B500F0C3FD002529480468204670BDEF
:103770001E480068704770B5044614B917480068C1
:1037800000E0204605463DB940F68C02AFF6400108
:10379000AFF6280011F088FE05F1340070BD70B559
:1037A00004460D463CB940F60632AFF65C01AFF672
:1037B000440011F079FE0948016818312046FFF7EE
:1037C0007BF901212846FFF742FC70BD6C00002008
:1037D000580000204C000020E801002034000020A8
:1037E000B80400205000002004ED00E04400002058
:1037F00090040020A4040020400000206800002065
:1038000049444C4500000000B53600086400002023
:103810004800002070B504460D4616463CB940F6F7
:103820001732AFF6D401AFF6BC0011F03DFEFE48F2
:10383000006808B1012000E0002038B940F61B32D2
:10384000AFF6F401AFF6DC0011F02EFE45F00040BB
:10385000F64909688861F548016818312046FFF784
:103860001FF901213046FFF7F2FB70BD70B5064627
:10387000F068C4683CB940F66132AFF62C11AFF67F
:10388000141011F011FE04F11800FFF72FF9E648AB
:103890000068A8B9201DFFF729F994F82C10012021
:1038A0008840E34909680843E1490860E16A01EB9F
:1038B0008101E04A02EB8100211DFFF7F1F804E0ED
:1038C00004F11801DC48FFF7EBF8D849E06A096811
:1038D000C96A884204D901250120D849086000E05E
:1038E0000025284670BD2DE9F04105460F46CE481B
:1038F000006808B1012000E0002038B940F6993294
:10390000AFF6B411AFF69C1011F0CEFD47F00040B9
:103910002860EC683CB940F6A132AFF6CC11AFF6A6
:10392000B41011F0C1FD2846FFF7E0F8201DFFF7A5
:10393000DDF894F82C1001208840BD49096808433F
:10394000BB490860E16A01EB8101BA4A02EB8100E0
:10395000211DFFF7A5F8B549E06A0968C96A8842E0
:1039600004D901260120B549086000E00026304650
:10397000BDE8F08110B504463CB940F6C132AFF65F
:103980003021AFF6182011F08FFDAD48006820609F
:10399000AC480068606010BD2DE9F04104460D465A
:1039A0003CB940F6CB32AFF65821AFF6402011F0CB
:1039B0007BFD3DB940F6CC32AFF66C21AFF654201A
:1039C00011F072FD00F03FFC9E4807682868401C1B
:1039D00008B9002619E09A4920680968884204D08D
:1039E0006068B84201D801260FE06068381A29687B
:1039F000884209D228686168791A401A28602046EE
:103A0000FFF7B8FF002600E0012600F03FFC30463B
:103A1000BDE8F08101208949086070478A4909683A
:103A200009B9012005E08049096809B9022000E0D0
:103A3000002070477D49096888697C490968C96A1E
:103A4000C1F12001794A12689161704770B506464C
:103A50000D4600F0F8FB75480068406C88B90120FD
:103A60007249096881F848005DB101212846FFF7D5
:103A7000EEFA4FF0805075490860BFF34F8FBFF3E7
:103A80006F8F00F003FC00F0DEFB68480068446CB8
:103A90004CB126B1002065490968486403E0601E06
:103AA00062490968486400206049096881F8480053
:103AB00000F0ECFB204670BD2DE9F041074688463A
:103AC00014461D4600F0BFFB5848006890F84800B7
:103AD000022818D05549096801F14400496CB943DE
:103AE000016001205149096881F848005DB1012158
:103AF0002846FFF7ACFA4FF0805054490860BFF3F6
:103B00004F8FBFF36F8F00F0C1FB00F09CFB1CB127
:103B100046480068406C20604448006890F84800BF
:103B2000012801D1002608E04049096801F144005C
:103B3000496C21EA08010160012600203B4909681F
:103B400081F8480000F0A2FB3046BDE8F0812DE985
:103B5000F04706460D46174698464FF0010A3EB913
:103B600041F2FD02AFF61841AFF6004011F09CFCA7
:103B7000344600F068FBB8F1000F02D0606CC8F862
:103B8000000094F84890022084F84800052F17D2CE
:103B9000DFE807F01503070B0D00606C2843606435
:103BA0000EE0606C401C60640AE0656408E0B9F1F6
:103BB000020F01D0656401E04FF0000A00E000BF91
:103BC00000BFB9F1010F45D1201DFEF78FFF94F81A
:103BD0002C100120884016490968084314490860E0
:103BE000E16A01EB8101134A02EB8100211DFEF71E
:103BF00057FFA06A08B9012000E0002038B941F25F
:103C00003512AFF6B441AFF69C4011F04DFC0749B8
:103C1000E06A0968C96A88421CD94FF080500B4994
:103C20000860BFF34F8F13E06C00002034000020C9
:103C30004C000020E80100209004002058000020E3
:103C40005C000020480000205000002004ED00E04F
:103C5000BFF36F8F00F01AFB5046BDE8F0872DE9E7
:103C6000F84F07460E4690469946DDF828B00120E9
:103C700000903FB941F26812AFF62C51AFF61450E4
:103C800011F012FC00F032FB3C4600BF5021EFF374
:103C9000118081F31188BFF34F8FBFF36F8F00BF87
:103CA0000546B9F1000F02D0606CC9F8000094F825
:103CB00048A0022084F84800B8F1050F17D2DFE8C9
:103CC00008F01503070B0D00606C304360640EE0D4
:103CD000606C401C60640AE0666408E0BAF1020FA0
:103CE00001D0666401E00020009000E000BF00BF4A
:103CF000BAF1010F3BD1A06A08B9012000E0002011
:103D000038B941F2AF12AFF6B851AFF6A05011F08A
:103D1000CBFB59480068A8B9201DFEF7E7FE94F8D0
:103D20002C10012088405549096808435349086010
:103D3000E16A01EB8101524A02EB8100211DFEF78D
:103D4000AFFE04E004F118014E48FEF7A9FE4E490B
:103D5000E06A0968C96A884209D9BBF1000F03D03B
:103D60000120CBF8000002E001204849086000BFB4
:103D700085F3118800BF0098BDE8F88F2DE9F04168
:103D800005460F463DB941F2E312AFF63C61AFF68E
:103D9000246011F089FB00F0A9FA2C4600BF5021E5
:103DA000EFF3118081F31188BFF34F8FBFF36F8F53
:103DB00000BF064694F84880022084F84800606CF2
:103DC000401C6064B8F1010F38D1A06A08B9012025
:103DD00000E0002038B941F20922AFF68C61AFF65D
:103DE000746011F061FB24480068A8B9201DFEF73B
:103DF0007DFE94F82C100120884020490968084372
:103E00001E490860E16A01EB81011D4A02EB810055
:103E1000211DFEF745FE04E004F118011948FEF7E4
:103E20003FFE1949E06A0968C96A884206D917B194
:103E30000120386002E001201449086000BF86F3C9
:103E4000118800BFBDE8F08170B5054615B90E4870
:103E5000006800E02846064600F0F5F996F84800AC
:103E6000022804D1002086F84800012400E0002444
:103E700000F00CFA204670BD6C0000204C000020C1
:103E8000E8010020900400203400002058000020A9
:103E900010B50146924800E0006803688B42FBD3EE
:103EA0000246436813448B4204D143684C68234460
:103EB000436001460A464B6813440468A34211D18B
:103EC000884C03682468A34208D04B68046864687F
:103ED00023444B6003681B680B6005E0814B1B6843
:103EE0000B6001E003680B60884200D0016010BDE8
:103EF00030B54FF410437C4800F007042CB1C01DCE
:103F000020F00700784C041B1B1B0246744C2260F7
:103F10000024734D6C60D018083820F00700714CF5
:103F2000206000246F4D2D686C606E4D2D682C60F4
:103F30001146441A4C606B4C24680C606B4D4C6805
:103F40002C606B4D4C682C604FF00044694D2C6028
:103F500030BD2DE9F04104464FF00008FFF7B5F8F9
:103F60006048006808B9FFF7C3FF62480068204056
:103F700000285FD1A4B1083404F0070080B104F038
:103F80000700C0F10800044404F0070008B901204C
:103F900000E0002020B9BF2257A161A011F084FAEF
:103FA000002C47D052480068844243D84C4E3046DB
:103FB000056801E02E462D686868A04202D2286894
:103FC0000028F7D147480068854233D0306800F1B7
:103FD0000808286830606868001B102813D92F195A
:103FE00007F0070008B9012000E0002020B9EC220A
:103FF00041A14BA011F058FA6868001B78606C6012
:104000003846FFF745FF3A4968680968081A384991
:1040100008600846006835490968884203D2344878
:104020000068324908603349686809680843686075
:1040300000202860FEF75FFF08F0070008B90120A4
:1040400000E0002028B94FF496722BA134A011F0A3
:104050002BFA4046BDE8F08170B506463546002E85
:1040600035D0083D2C46234960680968084008B1EE
:10407000012000E0002028B94FF4A0721EA128A062
:1040800011F012FA206808B9012000E0002028B9D8
:1040900040F2411218A122A011F006FA15496068F9
:1040A0000968084098B1206888B9124960680968B1
:1040B00088436060FFF709F80D49606809680844A3
:1040C0000B4908602046FFF7E3FEFEF714FF70BDC2
:1040D000074800687047054800687047704700004F
:1040E0007000002078000020CC0400208000002018
:1040F0007C000020840000202E2E5C2E2E5C467258
:10410000656552544F535C706F72745C4D656D4DB4
:10411000616E675C686561705F342E63000000004B
:104120004572726F723A25732C25640D0A000000E7
:1041300084480068401C08B9012000E0002020B934
:10414000F42281A18AA011F0AFF900BF502080F3C2
:104150001188BFF34F8FBFF36F8F00BF00BFFEE723
:10416000001F4FF080730360001F21F00103036004
:10417000001F834B03601438026020387047814869
:1041800000684FF47A71B0FBF1F0401E4FF0E0216F
:1041900048610720086170471CB57B4801460978D3
:1041A0000191FF21024611700146097800919DF8A6
:1041B000001001F05001754A11700721744A116016
:1041C00009E073490968491E714A11609DF80010A1
:1041D0004906090E00919DF8001001F08001802928
:1041E000EFD06B4909680902694A116011460988D4
:1041F00001F4E0611160644A01991170654800683A
:1042000040F47000634908600846006840F0704060
:104210000860FFF7B4FF00204A490860FBF7A4FFDD
:1042200000201CBD10B547480068B0F57A7F01D169
:10423000012000E0002028B94FF4B57242A14CA043
:1042400011F032F910BD10B500BF502080F3118875
:10425000BFF34F8FBFF36F8F00BF3A480068401C19
:10426000384908600846006801280ED149481C38C2
:104270000068C0B208B9012000E0002028B94FF45E
:10428000BD7231A13AA011F00FF910BD10B52D4843
:10429000006828B940F281122BA135A011F004F971
:1042A00028480068401E274908600846006820B971
:1042B000002080F3118800BF00BF10BD10B500BF03
:1042C000502080F31188BFF34F8FBFF36F8F00BF73
:1042D000FEF789FD20B14FF080502E491C3908604F
:1042E00000BF002080F3118800BF10BD70B5FBF740
:1042F00071FF0546102D11D305F1E02090F8F04331
:1043000022480078844201DB012000E0002028B927
:104310004FF42A720CA116A011F0C6F81D481438EB
:10432000006800F4E0601A490968884201D8012059
:1043300000E0002028B94FF42E7203A10CA011F068
:10434000B3F870BD880000202E2E5C2E2E5C4672C5
:10435000656552544F535C706F72745C525644538F
:104360005C41524D5F434D335C706F72742E63003D
:104370004572726F723A25732C25640D0A00000095
:10438000314100080000002000E400E08C00002023
:104390009000002020ED00E0FE4908807047FD49B4
:1043A000891C0880704700B503460A461846FFF787
:1043B000F3FF1046FFF7F3FF00BD10B501460023E1
:1043C000CA0AC1F3451401F01F03500340EA8410E8
:1043D00040EA430010BD0112EE4A921C1180C1B2A6
:1043E00011807047EB48801C0088704700B502467A
:1043F000E94882716AB93620FFF7CEFF4C20FFF7FB
:10440000CEFF4FF4F070E44948804FF4A07008806C
:104410000CE03620FFF7C0FF2C20FFF7C0FF4FF461
:10442000A070DD4948804FF4F070088000BD30B5C1
:1044300004460D462A20FFF7AFFF2012FFF7AFFF1B
:10444000E0B2FFF7ACFF1012FFF7A9FFD0B2FFF701
:10445000A6FF2B20FFF7A0FF2812FFF7A0FFE8B26E
:10446000FFF79DFF1812FFF79AFFD8B2FFF797FFEB
:104470002C20FFF791FF30BD2DE9F04104460D4699
:1044800000260027B046C4480088A04203DDC24889
:104490004088A84202DC0020BDE8F0812B4622467D
:1044A00029462046FFF7C3FF2E20FFF775FFB948C6
:1044B000801C068806883146B8A010F0F5FFB54884
:1044C000801C07883946B7A010F0EEFFB148801C69
:1044D000B0F800804146B5A010F0E6FF384666F31C
:1044E0001F2086B23046D7E708B501214FF4B470DB
:1044F000FCF706FE4CF23370ADF8000018208DF882
:10450000030003208DF802006946AB48FCF73CFB32
:104510004FF68070ADF8000018208DF803000320DE
:104520008DF802006946A548FCF72EFB41F2010018
:10453000ADF8000018208DF8030003208DF802006C
:1045400069469F48FCF720FB0120ADF800001020D1
:104550008DF8030003208DF8020069469948FCF7A6
:1045600013FB01209849086008BD00B59DB00121EA
:104570000802FCF7B8FD01200790002008900F20EA
:10458000099000200A900B900C900D90152000903F
:104590000190052002900020039004900590069061
:1045A00006200E9000200F901090102011900020F7
:1045B000129014901390159016904FF4805017900D
:1045C000002018904FF48040199000201A9007A8FE
:1045D0001B90CDF870D00EA8FBF7BCFF0121062080
:1045E000FCF720F91DB000BD2DE9F0470446BE20C0
:1045F000FFF7D2FE0520FFF7D2FE204610F04CFD5B
:1046000007464FF06632714B10F0C6FC054610F0BD
:104610007DFD1FFA80F94846FFF7C1FE0120FFF734
:10462000BEFEFF20FFF7BBFE0020FFF7B8FE002014
:10463000FFF7B5FEBDE8F08770B5064656484088DE
:10464000401E83B254480088401E82B200210846B2
:10465000FFF7EDFE00240CE0002504E03046FFF7F4
:10466000BAFE681C85B24C484088A842F6DC601C43
:1046700084B249480088A042EEDC70BD08B5FFF75F
:1046800033FFFFF772FF322000F00FFDD020FFF75D
:1046900083FEFFF7A7FE40498880FFF7A3FE3E494F
:1046A0008880084681884AA010F0FEFEE920FFF7C6
:1046B00073FE2020FFF773FE1120FFF76DFE4FF40D
:1046C000FA70009004E0BDF80000401E00B20090B7
:1046D000BDF900000028F6DCBDF9001040A010F084
:1046E000E3FE3A20FFF758FE5520FFF758FED12091
:1046F000FFF752FE0020FFF752FE6520FFF74FFE46
:104700001F20FFF74CFED020FFF746FE0720FFF7E3
:1047100046FE0720FFF743FE8020FFF740FE3620CD
:10472000FFF73AFE4C20FFF73AFEC120FFF734FEB8
:104730001020FFF734FE1020FFF731FE0220FFF7B4
:104740002EFE0220FFF72BFEC020FFF725FE0020E3
:10475000FFF725FE3520FFF722FE0020FFF71FFEA2
:104760000020FFF71CFE0120FFF719FE0220FFF7D3
:1047700016FEC420FFF710FE0320FFF710FEC52031
:10478000FFF70AFE0120FFF70AFED220FFF704FE22
:10479000012027E0FE07006C98000020723D25787C
:1047A00020202000673D257820202000623D2578CC
:1047B0002020200D0A0000000014014000180140D4
:1047C00000200140000C01408081214266660440C7
:1047D000204C43442049443A25780D0A000000004B
:1047E00025640A00FFF7DBFD2220FFF7D8FDE72054
:1047F000FFF7D2FD3820FFF7D2FDF320FFF7CCFD05
:104800000820FFF7CCFD1220FFF7C9FD1220FFF7AB
:10481000C6FD0820FFF7C3FDC820FFF7BDFD01203E
:10482000FFF7BDFD5220FFF7BAFD3720FFF7B7FDB8
:104830001020FFF7B4FD0D20FFF7B1FD0120FFF7B9
:10484000AEFD0420FFF7ABFD5120FFF7A8FD772058
:10485000FFF7A5FD0120FFF7A2FD0120FFF79FFD57
:104860000D20FFF79CFD0820FFF799FD8020FFF742
:1048700096FD0020FFF793FD2920FFF78DFD002016
:10488000FFF7B4FD4FF6FF70FFF7D6FE08BD2DE928
:10489000F04304460D4616461F46DDF81C80B44220
:1048A00001DCBD4201DDBDE8F0833B4632462946CE
:1048B0002046FFF7BCFD301B401C84B2781B401C17
:1048C00085B20BE0A94602E04046FFF784FDB9F14E
:1048D0000000A9F101011FFA81F9F5D1201EA4F110
:1048E00001018CB2EED100BFDDE72DE9F84F06469D
:1048F0000F4690469946DDF828B0A8EB0600401C0C
:104900001FFA80FAA9EB0700401C80B200904B46CA
:10491000424639463046FFF78AFD00240DE0002567
:1049200007E004FB0A513BF81100FFF754FD681C37
:1049300085B25545F5DB601C84B200988442EEDBFD
:10494000BDE8F88F30B504460D462B462246294671
:104950002046FFF76CFDFA480088FFF73CFD30BDAC
:1049600070B504460D4616462B462246294620467B
:10497000FFF75DFD3046FFF72EFD70BD2DE9FF4FBF
:1049800084B081468A460020039002900698A0EBEE
:1049900009050798A0EB0A06CDF80490CDF800A011
:1049A000002D01DD012705E00DB9002702E04FF0E1
:1049B000FF376D42002E02DD4FF0010806E016B908
:1049C0004FF0000802E04FF0FF387642B54201DDBB
:1049D0002C4600E034464FF0000B21E0009A91B2E3
:1049E000019A90B2FFF7AEFF039828440390029813
:1049F000304402900398A04205DD0398001B039009
:104A00000198384401900298A04205DD0298001BED
:104A100002900098404400900BF101001FFA80FBC7
:104A2000601C8345DADD08B0BDE8F08F2DE9FF4F4B
:104A300084B081468A460020029083460698A0EB07
:104A400009050798A0EB0A06CDF80490CDF800A060
:104A5000002D01DD012705E00DB9002702E04FF030
:104A6000FF376D42002E02DD4FF0010806E016B957
:104A70004FF0000802E04FF0FF387642B54201DD0A
:104A80002C4600E03446002003901EE0009A91B2CC
:104A9000019A90B2119AFFF763FF0298284402909E
:104AA000B3440298A04205DD0298001B02900198D1
:104AB00038440190A34504DDABEB040B009840445F
:104AC00000900398401C80B20390611C03988842B8
:104AD000DCDD08B0BDE8F08FF0B504460D461746A2
:104AE00005F1010C1FFA8CF304F1010C1FFA8CF292
:104AF000A5F1010C1FFA8CF1A4F1010C1FFA8CF046
:104B0000FFF795FC002604E03846FFF764FC701CB4
:104B1000C6B2092EF8DB211D8AB2211F88B22B46AE
:104B20002946FFF784FC002604E03846FFF753FCD3
:104B3000701CC6B2092EF8DB281D83B2281F81B273
:104B400022462046FFF773FC002604E03846FFF7B4
:104B500042FC701CC6B2092EF8DBF0BDF0B504466D
:104B60000D4616461F462B46324629462046FFF77D
:104B700005FF3B46224629462046FFF7FFFE3B46FF
:104B8000324639462046FFF7F9FE3B463246294673
:104B90003046FFF7F3FEF0BD2DE9F04306460F4621
:104BA0009046002445460320A0EB48093CE07A1BD0
:104BB00091B2321990B2FFF7C5FE3A1B91B2721949
:104BC00090B2FFF7BFFE3A1991B2721990B2FFF797
:104BD000B9FE7A1991B2321990B2FFF7B3FE7A1981
:104BE00091B2321B90B2FFF7ADFE3A1991B2721B2F
:104BF00090B2FFF7A7FE7A1B91B2321B90B2FFF77B
:104C0000A1FE3A1B91B2721B90B2FFF79BFE641C8F
:104C1000B9F1000F03DAA000801D814404E0601B9D
:104C200080000A3081446D1EAC42C0DDBDE8F083D7
:104C30002DE9F84F80460E4617461C46B3462046DF
:104C4000E31704EB5373DB1021464FEAE47C04EBDB
:104C50005C7C4FEAEC0CA4EBCC0CBCF1000F02D056
:104C60004FF0010C01E04FF0000C6344224604EBCE
:104C7000D27C4FEA6C0C03FB0CF3DBB20093A7F180
:104C80002000C7B2002556E00C2C07D107EB4700E7
:104C90002C4901EB800010F8059013E0102C05D191
:104CA000294800EB071010F805900BE0182C07D1ED
:104CB00007EBC700254901EB800010F8059001E0E3
:104CC000BDE8F88F4FF0000A2FE009F0800030B106
:104CD0001B48028831464046FFF742FE07E00A982B
:104CE00028B91B48028831464046FFF739FE4FEA93
:104CF00049604FEA1069701C86B216484088B0427D
:104D000000DCDDE7A6EB0B00A0420AD15E4608F10D
:104D100001001FFA80F80F480088404500DCCFE70B
:104D200006E00AF1010000F0FF0ABAF1080FCCDB3F
:104D300000BF681CC5B200988542A5DB00BFBFE775
:104D40009400002000580108745C010864620108A6
:104D5000960000209800002010B50246012000E0D7
:104D600050430B1EA1F10104E1B2F9D110BD2DE9B0
:104D7000FF4F81B0074691461E460E9D4FF0000A38
:104D8000002439E0301B401EC1B20A20FFF7E4FFC7
:104D9000B9FBF0F00A21B0FBF1F201FB1208BAF105
:104DA000000F16D1701EA04213DDB8F1000F0ED116
:104DB0000020AB4605EBDB71491001FB047100904C
:104DC00088B22B4620220299FFF732FF12E04FF003
:104DD000010A0020AB4605EBDB71491001FB0471B1
:104DE000009088B208F13001CAB22B460299FFF751
:104DF0001FFF00BF601CC4B2B442C3DB05B0BDE8F6
:104E0000F08F2DE9FF4F82B0064692461F46DDE93E
:104E10000F480020019000254DE0781B401EC1B2D4
:104E20000A20FFF799FFBAFBF0F00A21B0FBF1F27C
:104E300001FB1209019850BB781EA84227DDB9F189
:104E4000000F22D108F0800078B108F00100A346DD
:104E500004EBDB71491001FB0561009088B2234629
:104E600030220399FFF7E4FE0EE008F00100A346AC
:104E700004EBDB71491001FB0561009088B2234609
:104E800020220399FFF7D4FE13E00120019008F0DF
:104E90000100A34604EBDB71491001FB05610090A2
:104EA00088B209F13001CAB223460399FFF7C0FE68
:104EB00000BF681CC5B2BD42AFDB06B0BDE8F08FD5
:104EC0002DE9F84704460D4690469946DDE9096705
:104ED00004F0FF0A08EB04001FFA80F809EB050054
:104EE0001FFA80F916E0444502DB5446A81985B242
:104EF0004D4500DB14E0002000903A783346294607
:104F00002046FFF795FE304606EBD07104EB6101B9
:104F10008CB27F1C38787E2802DC38782028E2DAD0
:104F200000BFBDE8F8872DE9F84F04460F46154647
:104F3000A346009760E0002657E006EB8600C0EB32
:104F40008610524911F81000297888424BD106EB9F
:104F50008600C0EB86104D4901EB4000407869782F
:104F6000884240D14FF000083AE006EB8600C0EBE3
:104F70008610464901EB4000801C10F808A04FF055
:104F8000000926E00AF08000802806D14048028807
:104F900039462046FFF7E4FC05E03E4802883946E2
:104FA0002046FFF7DDFC4FF6FF7000EA4A0A601C5E
:104FB00084B2A4EB0B00202807D15C46781C87B292
:104FC0000098381A1D2800D1009F09F1010000F057
:104FD000FF09B9F1080FD5DB08F1010000F0FF0867
:104FE000B8F1740FC1DB701CC6B2142EA5DBAD1C6A
:104FF00004F1200084B2A346287800289BD1BDE8A4
:10500000F88F2DE9F84F06460F4614461D464FF01F
:10501000000AD346002000907819401E83B2301950
:10502000401E82B239463046FFF701FA04FB05F014
:1050300040000090D04625E04FF000091CE00BF145
:1050400001010A9810F801A04FF6FF7000EA0A2A41
:105050000A9810F80B0040EA0A0A07EB080291B21E
:1050600006EB090290B25246FFF77AFC0BF1020BF5
:1050700009F101001FFA80F9A145E0DB08F1010008
:105080001FFA80F8A845D7DBBDE8F88F409F0108DC
:105090009400002096000020002101E000BF491C80
:1050A00000EB80028A42F9D87047002101E000BF7E
:1050B000491C40F271224243B1EBC20FF7D3704753
:1050C00070B50446002500BF17E004F0800018B159
:1050D0000120FE49086002E00020FC4908606006EB
:1050E000040E0020FA4908600120FFF7D5FF0120D7
:1050F000F849C1F88401681CC5B2082DE5DB70BD14
:1051000070B50646002500240020F1490860F249E8
:10511000C1F8A401ED49083108603046FFF7D0FF1F
:105120000620FFF7B9FF0020EA49C1F884010120F9
:10513000FFF7B2FF0120E6490860FFF7ADFF00204E
:10514000E449C1F8840100BF15E04FF6FF7000EAA2
:1051500044040020DE4908600120FFF79DFF012084
:10516000DC49C1F88401DA487C38006808B1601C69
:1051700084B2681CC5B2102DE7DB24110120D3498D
:1051800008310860204670BD2DE9F04194B080469A
:105190000027002406E04046FFF7B2FF2DF8140078
:1051A000601C84B2282CF6DB002416E0601C85B25B
:1051B0000FE03DF814003DF81510884207DD3DF87A
:1051C00014603DF815002DF814002DF81560681CCA
:1051D00085B2282DEDDB601C84B2272CE6DB00278E
:1051E000012404E03DF814000744601C84B2272C1D
:1051F000F8DB2620B7FBF0F086B2304614B0BDE8ED
:10520000F0812DE9F04104460D46B4480078FFF7DF
:10521000BBFF0646B2480078FFF7B6FF0746268078
:105220002F800120BDE8F0817FB504460D4602A91C
:1052300003A8FFF7E6FF064616B9002004B070BDCC
:10524000694601A8FFF7DDFF06460EB90020F5E725
:10525000BDF80400BDF80C10884206DCBDF80C1047
:10526000BDF80400323081420CDBBDF80C00BDF803
:105270000410884236DCBDF80410BDF80C00323052
:1052800081422FDABDF80000BDF80810884206DC24
:10529000BDF80810BDF80000323081420CDBBDF8CB
:1052A0000800BDF8001088421CDCBDF80010BDF8F5
:1052B00008003230814215DABDF80C10BDF8042028
:1052C000881800EBD071C1F34F012180BDF80810A0
:1052D000BDF80020881800EBD071C1F34F01298080
:1052E0000120ABE70020A9E770B504460D4616463D
:1052F0007C48068004F10D018AB2193988B22B4628
:105300002946FFF73BFB05F10D0083B2193881B246
:1053100022462046FFF732FB6A1C91B2621C90B213
:10532000FFF710FB6A1C91B2621E90B2FFF70AFBF6
:105330006A1E91B2621C90B2FFF704FB6A1E91B222
:10534000621E90B2FFF7FEFA062229462046FFF7BA
:1053500023FC70BD70B504460D46164661480680B4
:1053600029462046FFF7EEFA611C88B22946FFF76E
:10537000E9FA681C81B22046FFF7E4FA6A1C91B290
:10538000621C90B2FFF7DEFA70BD2DE9F0410446D1
:105390004E487C380068002855D12CB15249A1F103
:1053A0001400FFF741FF3DE04F49A1F11400FFF762
:1053B0003BFFB8B34C492039B1F940000FF05EFE15
:1053C00007464949203988890FF061FE80464648E2
:1053D0002038816B40460FF06FFD064639460FF0CE
:1053E00013FD05460FF07EFE3F4920398881B1F953
:1053F00042000FF043FE07463B492039088C0FF06E
:1054000046FE804638482038C16B40460FF054FDB8
:10541000064639460FF0F8FC05460FF063FE3249A8
:10542000203908843048203890F8340000F080009B
:1054300020BBC0202C49203988860846818981827A
:10544000018C01851AE02848203890F8340000F0DB
:10545000800040B124482038808E20F0800022490E
:10546000203988860AE000211F4820388182018582
:105470004FF6FF701C492039888108841A4820386B
:1054800090F8340000F08000BDE8F08170B5164956
:105490002039886B15490FF00FFD05460FF009FE06
:1054A000044604222146C82000F046FE0E49203959
:1054B000C86B0E490FF000FD05460FF0FAFD0446DB
:1054C00004222146CC2000F037FE11E0A4812342C3
:1054D000848121420080214200802342E800002094
:1054E000E900002094000020C000002020BCBE4C39
:1054F000FE48B0F940100222D02000F01DFEFB480B
:10550000B0F942100222D22000F016FEF74890F8BF
:105510004410D42000F0E8FD0A242146D52000F0F4
:10552000E3FD70BD70B5D52000F0B2FD04460A2C35
:1055300044D10421C82000F014FE044620460FF098
:105540009DFD0546EA490FF0E9FCE849886304211E
:10555000CC2000F006FE044620460FF08FFD0546E5
:10556000E3490FF0DBFCE149C8630221D02000F0E1
:10557000F8FD00B2DD49A1F840000221D22000F080
:10558000F0FD00B2D949A1F84200D42000F080FD1E
:10559000D64981F84400084690F8440030B1902084
:1055A000D4490870D020D449087005E0D020D149F2
:1055B00008709020D0490870012070BD0020FCE7E1
:1055C0002DE9FC5F04460D4617461E46DDE90EAB8D
:1055D000DDE90C894FF47840C8490880C8A0102143
:1055E000CDE90010C74843880288A0212820FFF792
:1055F00067FCC5A01021CDE90010C248438802888D
:10560000A0217820FFF75CFCC0A01021CDE900109C
:10561000BC4843880288B4212820FFF751FCBCA075
:105620001021CDE90010B74843880288B4217820C2
:10563000FFF746FCB7A01021CDE90010B148438820
:105640000288C8212820FFF73BFCB3A01021CDE938
:105650000010AC4843880288C8217820FFF730FC4E
:10566000AEA01021CDE90010A64843880288DC21B5
:105670002820FFF725FCAAA01021CDE90010A148A1
:1056800043880288DC217820FFF71AFCA5A01021AE
:10569000CDE900109B4843880288F0212820FFF7BD
:1056A0000FFC102004232246A02100904020FFF789
:1056B0005EFB102004232A46A02100909020FFF7D3
:1056C00056FB102004233A46B42100904020FFF7F7
:1056D0004EFB102004233246B42100909020FFF7A7
:1056E00046FB102004234246C82100904020FFF7CB
:1056F0003EFB102004234A46C82100909020FFF76B
:1057000036FB102004235246DC2100904020FFF796
:105710002EFB102004235A46DC2100909020FFF736
:1057200026FB102003230090F0216020109AFFF741
:105730001EFBBDE8FC9F00B597B0002012900B90B7
:1057400012901F206D4908804FF6FF70774908803E
:10575000FEF772FF4FF47840684908804FF6FF70FB
:10576000FEF76AFF00206549088071480068102133
:105770006423A022CDE9001028210846FFF7A0FBF2
:105780004FF4784214210846FFF7AEFD0020574938
:1057900088868863EFE3554840680A9001200A999B
:1057A0008847524890F8340000F0C00040287AD171
:1057B00000200B904D48808E20F040004B49888699
:1057C0000846818913AA129822F820104748018CB4
:1057D000129802EB800041801298401CC0B21290D7
:1057E0001298012806D0022815D0032829D00428B1
:1057F00010D141E04FF6FF7214210846FFF774FD07
:1058000040480088143880B24FF4784214210A903E
:10581000FFF76AFD9FE33B480088143880B24FF6DB
:10582000FF7214210A90FFF75FFD36484088143854
:1058300080B24FF4784201460A901420FFF754FDDD
:1058400089E330484088143880B24FF6FF72014631
:105850000A901420FFF748FD2A484088143880B287
:105860000A9028480088143880B24FF47842099092
:105870000A99FFF739FD6EE3BDF84C00BDF85010F2
:10588000401A0A90002801DB0A9801E00A98404279
:105890000F90BDF84E1013A8C088081A0A9000286F
:1058A00002DB0A9802E057E30A9840420E900F98F4
:1058B00040430F900E9840430E90DDE90E100844CF
:1058C00005900FF0E9FBCDE906010FF073FFCDE97C
:1058D00008010FF01BFC80B21190BDF85400BDF818
:1058E0005810401A0A90002826DB23E0A000002070
:1058F00020BCBE4CE8000020E900002094000020FD
:1059000078313A009800002079313A0078323A0034
:1059100079323A0078333A0079333A0078343A00F1
:1059200079343A006661632069733A00960000207A
:1059300018A101080A9801E00A9840420F9013A8A4
:105940004189C089081A0A90002801DB0A9801E001
:105950000A9840420E900F9840430F900E98404393
:105960000E90DDE90E10084405900FF095FBCDE98F
:1059700006010FF01FFFCDE908010FF0C7FB80B251
:10598000109010980FF083FB099011980FF07FFB97
:10599000089009990FF0C2FA0A900FF0D0FBCDE9F8
:1059A0000C014FF06632FE4BDDE90C010FF0DAFB23
:1059B0000AD3FC4AFC4BDDE90C010FF0EBFB03D3EF
:1059C000119808B11098E8BB00201290F748408861
:1059D000143880B20A90F5480088143880B24FF627
:1059E000FF7209900A99FFF77FFC4FF47842142167
:1059F0000846FFF779FC0022ED4BDDE90C010FF0C2
:105A0000CBFACDE908010FF081FB80B213A90A900F
:105A1000C989BDF8582013AB5B89CDE90132CDE9C6
:105A20000310BDF85400009013A8C0880990BDF879
:105A300050000890BDF84E000790BDF84C0006904D
:105A400007A900E003E00EC9FFF7BAFD93E2BDF835
:105A50004C00BDF85410401A0A90002801DB0A9847
:105A600001E00A9840420F90BDF84E1013A84089FB
:105A7000081A0A90002801DB0A9801E00A984042BF
:105A80000E900F9840430F900E9840430E90DDE922
:105A90000E10084405900FF0FFFACDE906010FF053
:105AA00089FECDE908010FF031FB80B21190BDF8FD
:105AB0005000BDF85810401A0A90002801DB0A98DF
:105AC00001E00A9840420F9013A8C188C089081AC3
:105AD0000A90002801DB0A9801E00A9840420E90E3
